{
  "_format": "hh-sol-artifact-1",
  "contractName": "Holding",
  "sourceName": "contracts/Holding.sol",
  "abi": [
    {
      "inputs": [],
      "stateMutability": "nonpayable",
      "type": "constructor"
    },
    {
      "inputs": [],
      "name": "GovernedCantGoverItself",
      "type": "error"
    },
    {
      "inputs": [],
      "name": "GovernedGovernorZeroAddress",
      "type": "error"
    },
    {
      "inputs": [],
      "name": "GovernedOnlyGovernorAllowedToCall",
      "type": "error"
    },
    {
      "inputs": [],
      "name": "GovernedOnlyPendingGovernorAllowedToCall",
      "type": "error"
    },
    {
      "inputs": [
        {
          "internalType": "uint256",
          "name": "depositId",
          "type": "uint256"
        }
      ],
      "name": "MetaForceSpaceHoldingAmountIsZero",
      "type": "error"
    },
    {
      "inputs": [
        {
          "internalType": "uint256",
          "name": "depositId",
          "type": "uint256"
        }
      ],
      "name": "MetaForceSpaceHoldingDepositDontExist",
      "type": "error"
    },
    {
      "inputs": [
        {
          "internalType": "uint256",
          "name": "depositId",
          "type": "uint256"
        }
      ],
      "name": "MetaForceSpaceHoldingDepositInactive",
      "type": "error"
    },
    {
      "inputs": [
        {
          "internalType": "uint256",
          "name": "depositId",
          "type": "uint256"
        },
        {
          "internalType": "uint256",
          "name": "amount",
          "type": "uint256"
        }
      ],
      "name": "MetaForceSpaceHoldingInsufficientDepositAmount",
      "type": "error"
    },
    {
      "inputs": [
        {
          "internalType": "uint256",
          "name": "levelNumber",
          "type": "uint256"
        }
      ],
      "name": "MetaForceSpaceHoldingLevelDontExist",
      "type": "error"
    },
    {
      "inputs": [
        {
          "internalType": "uint256",
          "name": "levelNumber",
          "type": "uint256"
        }
      ],
      "name": "MetaForceSpaceHoldingLevelNotAllowedToHold",
      "type": "error"
    },
    {
      "inputs": [
        {
          "internalType": "uint256",
          "name": "lockupPeriod",
          "type": "uint256"
        }
      ],
      "name": "MetaForceSpaceHoldingLockupPeriodTooSmall",
      "type": "error"
    },
    {
      "inputs": [],
      "name": "MetaForceSpaceHoldingNotAllowed",
      "type": "error"
    },
    {
      "inputs": [],
      "name": "MetaForceSpaceHoldingZeroAddress",
      "type": "error"
    },
    {
      "anonymous": false,
      "inputs": [
        {
          "indexed": false,
          "internalType": "uint256",
          "name": "amount",
          "type": "uint256"
        }
      ],
      "name": "BackMFSInMetaPool",
      "type": "event"
    },
    {
      "anonymous": false,
      "inputs": [
        {
          "indexed": true,
          "internalType": "address",
          "name": "governor",
          "type": "address"
        },
        {
          "indexed": true,
          "internalType": "address",
          "name": "newGovernor",
          "type": "address"
        }
      ],
      "name": "GovernanceTransited",
      "type": "event"
    },
    {
      "anonymous": false,
      "inputs": [
        {
          "indexed": true,
          "internalType": "uint256",
          "name": "depositId",
          "type": "uint256"
        },
        {
          "indexed": false,
          "internalType": "uint256",
          "name": "createdAt",
          "type": "uint256"
        },
        {
          "indexed": false,
          "internalType": "uint256",
          "name": "amount",
          "type": "uint256"
        }
      ],
      "name": "Hold",
      "type": "event"
    },
    {
      "anonymous": false,
      "inputs": [
        {
          "indexed": false,
          "internalType": "uint8",
          "name": "version",
          "type": "uint8"
        }
      ],
      "name": "Initialized",
      "type": "event"
    },
    {
      "anonymous": false,
      "inputs": [
        {
          "indexed": true,
          "internalType": "address",
          "name": "governor",
          "type": "address"
        },
        {
          "indexed": true,
          "internalType": "address",
          "name": "newGovernor",
          "type": "address"
        }
      ],
      "name": "PendingGovernanceTransition",
      "type": "event"
    },
    {
      "anonymous": false,
      "inputs": [
        {
          "indexed": true,
          "internalType": "uint256",
          "name": "depositId",
          "type": "uint256"
        },
        {
          "indexed": false,
          "internalType": "uint256",
          "name": "amount",
          "type": "uint256"
        }
      ],
      "name": "Unhold",
      "type": "event"
    },
    {
      "anonymous": false,
      "inputs": [
        {
          "indexed": true,
          "internalType": "uint256",
          "name": "depositId",
          "type": "uint256"
        },
        {
          "indexed": true,
          "internalType": "uint256",
          "name": "level",
          "type": "uint256"
        },
        {
          "indexed": false,
          "internalType": "uint256",
          "name": "amount",
          "type": "uint256"
        }
      ],
      "name": "Withdraw",
      "type": "event"
    },
    {
      "inputs": [],
      "name": "acceptGovernance",
      "outputs": [],
      "stateMutability": "nonpayable",
      "type": "function"
    },
    {
      "inputs": [
        {
          "internalType": "uint256",
          "name": "depositId",
          "type": "uint256"
        }
      ],
      "name": "getDeposit",
      "outputs": [
        {
          "components": [
            {
              "internalType": "uint216",
              "name": "holderId",
              "type": "uint216"
            },
            {
              "internalType": "bool",
              "name": "unholdingAllowed",
              "type": "bool"
            },
            {
              "internalType": "uint256",
              "name": "entryLevel",
              "type": "uint256"
            },
            {
              "internalType": "uint256",
              "name": "amount",
              "type": "uint256"
            },
            {
              "internalType": "uint32",
              "name": "createdAt",
              "type": "uint32"
            }
          ],
          "internalType": "struct Deposit",
          "name": "",
          "type": "tuple"
        }
      ],
      "stateMutability": "view",
      "type": "function"
    },
    {
      "inputs": [
        {
          "internalType": "uint256",
          "name": "holder",
          "type": "uint256"
        }
      ],
      "name": "getDepositIds",
      "outputs": [
        {
          "internalType": "uint256[]",
          "name": "",
          "type": "uint256[]"
        }
      ],
      "stateMutability": "view",
      "type": "function"
    },
    {
      "inputs": [],
      "name": "getHoldingOpened",
      "outputs": [
        {
          "internalType": "bool",
          "name": "",
          "type": "bool"
        }
      ],
      "stateMutability": "view",
      "type": "function"
    },
    {
      "inputs": [
        {
          "internalType": "uint256",
          "name": "depositId",
          "type": "uint256"
        }
      ],
      "name": "getOutHMFSLevelFromDeposit",
      "outputs": [
        {
          "internalType": "uint256",
          "name": "levelHMFS",
          "type": "uint256"
        }
      ],
      "stateMutability": "view",
      "type": "function"
    },
    {
      "inputs": [],
      "name": "governor",
      "outputs": [
        {
          "internalType": "address",
          "name": "",
          "type": "address"
        }
      ],
      "stateMutability": "view",
      "type": "function"
    },
    {
      "inputs": [
        {
          "internalType": "uint256",
          "name": "entryLevel",
          "type": "uint256"
        },
        {
          "internalType": "uint256",
          "name": "amount",
          "type": "uint256"
        }
      ],
      "name": "hMFSToMFS",
      "outputs": [],
      "stateMutability": "nonpayable",
      "type": "function"
    },
    {
      "inputs": [
        {
          "internalType": "uint256",
          "name": "entryLevel",
          "type": "uint256"
        },
        {
          "internalType": "uint256",
          "name": "amount",
          "type": "uint256"
        }
      ],
      "name": "hold",
      "outputs": [
        {
          "internalType": "uint256",
          "name": "depositId",
          "type": "uint256"
        }
      ],
      "stateMutability": "nonpayable",
      "type": "function"
    },
    {
      "inputs": [
        {
          "internalType": "uint256",
          "name": "beneficiaryId",
          "type": "uint256"
        },
        {
          "internalType": "uint256",
          "name": "entryLevel",
          "type": "uint256"
        },
        {
          "internalType": "uint256",
          "name": "amount",
          "type": "uint256"
        }
      ],
      "name": "holdOnBehalf",
      "outputs": [
        {
          "internalType": "uint256",
          "name": "depositId",
          "type": "uint256"
        }
      ],
      "stateMutability": "nonpayable",
      "type": "function"
    },
    {
      "inputs": [
        {
          "internalType": "contract IRegistryContract",
          "name": "_registry",
          "type": "address"
        },
        {
          "internalType": "uint256[]",
          "name": "_lockupPeriods",
          "type": "uint256[]"
        }
      ],
      "name": "initialize",
      "outputs": [],
      "stateMutability": "nonpayable",
      "type": "function"
    },
    {
      "inputs": [
        {
          "internalType": "uint256",
          "name": "",
          "type": "uint256"
        }
      ],
      "name": "lockupPeriods",
      "outputs": [
        {
          "internalType": "uint256",
          "name": "",
          "type": "uint256"
        }
      ],
      "stateMutability": "view",
      "type": "function"
    },
    {
      "inputs": [],
      "name": "pendingGovernor",
      "outputs": [
        {
          "internalType": "address",
          "name": "",
          "type": "address"
        }
      ],
      "stateMutability": "view",
      "type": "function"
    },
    {
      "inputs": [],
      "name": "registry",
      "outputs": [
        {
          "internalType": "contract IRegistryContract",
          "name": "",
          "type": "address"
        }
      ],
      "stateMutability": "view",
      "type": "function"
    },
    {
      "inputs": [
        {
          "internalType": "bool",
          "name": "_opened",
          "type": "bool"
        }
      ],
      "name": "setHoldingOpened",
      "outputs": [],
      "stateMutability": "nonpayable",
      "type": "function"
    },
    {
      "inputs": [
        {
          "internalType": "uint256",
          "name": "levelNumber",
          "type": "uint256"
        },
        {
          "internalType": "uint256",
          "name": "lockupPeriod",
          "type": "uint256"
        }
      ],
      "name": "setLockupPeriod",
      "outputs": [],
      "stateMutability": "nonpayable",
      "type": "function"
    },
    {
      "inputs": [
        {
          "internalType": "address",
          "name": "newGovernor",
          "type": "address"
        },
        {
          "internalType": "bool",
          "name": "force",
          "type": "bool"
        }
      ],
      "name": "transitGovernance",
      "outputs": [],
      "stateMutability": "nonpayable",
      "type": "function"
    },
    {
      "inputs": [
        {
          "internalType": "uint256",
          "name": "_depositId",
          "type": "uint256"
        },
        {
          "internalType": "uint256",
          "name": "_amount",
          "type": "uint256"
        }
      ],
      "name": "withdraw",
      "outputs": [],
      "stateMutability": "nonpayable",
      "type": "function"
    }
  ],
  "bytecode": "0x608060405234801561001057600080fd5b50600160025561244b806100256000396000f3fe608060405234801561001057600080fd5b506004361061011b5760003560e01c80639f9fb968116100b2578063e3056a3411610081578063e727286611610066578063e7272866146102c9578063eb16cd12146102dc578063f98d972b146102ef57600080fd5b8063e3056a3414610296578063e379ece5146102a957600080fd5b80639f9fb968146101ed578063adce59e114610253578063b5282a5414610270578063ddc125261461028357600080fd5b8063492723ff116100ee578063492723ff14610186578063678bcd91146101b45780637b103999146101c75780639f5ded35146101da57600080fd5b80630c340a2414610120578063238efcbc14610156578063330fd6d314610160578063441a3e7014610173575b600080fd5b600054610139906201000090046001600160a01b031681565b6040516001600160a01b0390911681526020015b60405180910390f35b61015e610302565b005b61015e61016e366004612186565b610397565b61015e610181366004612186565b6104a0565b6101a66101943660046121a8565b60046020526000908152604090205481565b60405190815260200161014d565b61015e6101c23660046121d6565b610a61565b600354610139906001600160a01b031681565b6101a66101e83660046121f1565b610aa5565b6102006101fb3660046121a8565b610bd6565b60405161014d9190600060a0820190506001600160d81b038351168252602083015115156020830152604083015160408301526060830151606083015263ffffffff608084015116608083015292915050565b6007546102609060ff1681565b604051901515815260200161014d565b6101a661027e3660046121a8565b610c7d565b61015e610291366004612235565b610cc6565b600154610139906001600160a01b031681565b6102bc6102b73660046121a8565b610dc4565b60405161014d919061226a565b61015e6102d73660046122c4565b610e26565b61015e6102ea366004612186565b611043565b6101a66102fd366004612186565b61136c565b6001546001600160a01b0316331461032d5760405163aec80d4b60e01b815260040160405180910390fd5b60015460008054620100006001600160a01b0393841681810275ffffffffffffffffffffffffffffffffffffffff00001990931692909217808455604051929491900416917f564590b81987d147246f63910a8e1ee4eb09c4d64cc75ee975a8ffedfcc2210e91a3565b6000546201000090046001600160a01b031633146103c8576040516305e7700560e51b815260040160405180910390fd5b600354604051634b3cf3a160e11b81526004810184905283916000916001600160a01b0390911690639679e74290602401602060405180830381865afa158015610416573d6000803e3d6000fd5b505050506040513d601f19601f8201168201806040525081019061043a9190612397565b6001600160a01b0316036104695760405163bafad72760e01b8152600481018290526024015b60405180910390fd5b8160000361048d5760405163b923563560e01b815260048101839052602401610460565b5060009182526004602052604090912055565b60028054036104f15760405162461bcd60e51b815260206004820152601f60248201527f5265656e7472616e637947756172643a207265656e7472616e742063616c6c006044820152606401610460565b6002805560055480831061051b5760405163669620b160e11b815260048101849052602401610460565b600060058481548110610530576105306123b4565b90600052602060002090600402019050600061054b336113e4565b9050836000036105715760405163ec3a977b60e01b815260048101869052602401610460565b8160020154600003610599576040516376eba3d760e01b815260048101869052602401610460565b81546001600160d81b031681146105c35760405163d7b6d21360e01b815260040160405180910390fd5b81600201548411156105f2576040516377e4894360e01b81526004810186905260248101859052604401610460565b6001820154600383015460009161060e9163ffffffff166114cc565b90508260010154810361066e578254600160d81b900460ff166106445760405163d7b6d21360e01b815260040160405180910390fd5b826001015460000361065f5761065a828661155c565b610a04565b61065a82846001015487611716565b60035460408051630fa7bbdd60e01b815290516001600160a01b03909216916000918391630fa7bbdd916004808201926020929091908290030181865afa1580156106bd573d6000803e3d6000fd5b505050506040513d601f19601f820116820180604052508101906106e19190612397565b6001600160a01b03166359b77b1e6040518163ffffffff1660e01b8152600401602060405180830381865afa15801561071e573d6000803e3d6000fd5b505050506040513d601f19601f820116820180604052508101906107429190612397565b604051634b3cf3a160e11b8152600481018590529091506001600160a01b03831690639679e74290602401602060405180830381865afa15801561078a573d6000803e3d6000fd5b505050506040513d601f19601f820116820180604052508101906107ae9190612397565b6040516340c10f1960e01b81526001600160a01b038381166004830152602482018a905291909116906340c10f1990604401600060405180830381600087803b1580156107fa57600080fd5b505af115801561080e573d6000803e3d6000fd5b50505050846001015460000361082c57610827876118aa565b610915565b806001600160a01b03166316db55c4836001600160a01b0316639679e74288600101546040518263ffffffff1660e01b815260040161086d91815260200190565b602060405180830381865afa15801561088a573d6000803e3d6000fd5b505050506040513d601f19601f820116820180604052508101906108ae9190612397565b6040516001600160e01b031960e084901b1681526001600160a01b039091166004820152306024820152604481018a9052606401600060405180830381600087803b1580156108fc57600080fd5b505af1158015610910573d6000803e3d6000fd5b505050505b604051634b3cf3a160e11b8152600481018490526001600160a01b0380831691631e9f7a9b91851690639679e74290602401602060405180830381865afa158015610964573d6000803e3d6000fd5b505050506040513d601f19601f820116820180604052508101906109889190612397565b6040516001600160e01b031960e084901b1681526001600160a01b03909116600482015260248101879052604481018a90526064016020604051808303816000875af11580156109dc573d6000803e3d6000fd5b505050506040513d601f19601f82011682018060405250810190610a0091906123ca565b5050505b84836002016000828254610a1891906123f9565b9091555050604051858152819087907fa01a72713bf837059e3a668d28f0de277fb7f24f2a4e95bf926703c95b5f12b29060200160405180910390a35050600160025550505050565b6000546201000090046001600160a01b03163314610a92576040516305e7700560e51b815260040160405180910390fd5b6007805460ff1916911515919091179055565b60006002805403610af85760405162461bcd60e51b815260206004820152601f60248201527f5265656e7472616e637947756172643a207265656e7472616e742063616c6c006044820152606401610460565b6002805560035460408051633d0b93d560e11b815290516001600160a01b0390921691637a1727aa916004808201926020929091908290030181865afa158015610b46573d6000803e3d6000fd5b505050506040513d601f19601f82011682018060405250810190610b6a9190612397565b6001600160a01b0316336001600160a01b031614610b9b5760405163d7b6d21360e01b815260040160405180910390fd5b83600003610bbc5760405163ccb0176160e01b815260040160405180910390fd5b610bc98484600085611b02565b6001600255949350505050565b6040805160a08101825260008082526020820181905291810182905260608101829052608081019190915260058281548110610c1457610c146123b4565b60009182526020918290206040805160a081018252600490930290910180546001600160d81b038116845260ff600160d81b909104161515938301939093526001830154908201526002820154606082015260039091015463ffffffff16608082015292915050565b60008060058381548110610c9357610c936123b4565b6000918252602090912060049091020160018101546003820154919250610cbf9163ffffffff166114cc565b9392505050565b6000546201000090046001600160a01b03163314610cf7576040516305e7700560e51b815260040160405180910390fd5b6001600160a01b038216610d1e5760405163604b48b960e11b815260040160405180910390fd5b306001600160a01b03831603610d47576040516306b3e95d60e21b815260040160405180910390fd5b6001805473ffffffffffffffffffffffffffffffffffffffff19166001600160a01b03841617905580610db757600080546040516001600160a01b03808616936201000090930416917fc606c9af1451cadeb333f6ff7b24a5540974f4e800bac274fa7fff9edc305cb191a35050565b610dc082612020565b5050565b600081815260066020908152604091829020805483518184028101840190945280845260609392830182828015610e1a57602002820191906000526020600020905b815481526020019060010190808311610e06575b50505050509050919050565b6000610e507fb53127684a568b3173ae13b9f8a6016e243e63b6e8ee1178d6a717850b5d61035490565b90506001600160a01b038116610e8f576001600160a01b037fb53127684a568b3173ae13b9f8a6016e243e63b6e8ee1178d6a717850b5d610355610ea4565b336001600160a01b03821614610ea457600080fd5b600054610100900460ff1615808015610ec45750600054600160ff909116105b80610ede5750303b158015610ede575060005460ff166001145b610f505760405162461bcd60e51b815260206004820152602e60248201527f496e697469616c697a61626c653a20636f6e747261637420697320616c72656160448201527f647920696e697469616c697a65640000000000000000000000000000000000006064820152608401610460565b6000805460ff191660011790558015610f73576000805461ff0019166101001790555b610f7c33612020565b6003805473ffffffffffffffffffffffffffffffffffffffff19166001600160a01b038616179055825160005b81811015610ff557848181518110610fc357610fc36123b4565b602002602001015160046000836001610fdc9190612412565b8152602081019190915260400160002055600101610fa9565b5050801561103d576000805461ff0019169055604051600181527f7f26b83ff96e1f2b6a682f133852f6798a09c465da95921460cefb38474024989060200160405180910390a15b50505050565b600354604051634b3cf3a160e11b81526004810184905283916000916001600160a01b0390911690639679e74290602401602060405180830381865afa158015611091573d6000803e3d6000fd5b505050506040513d601f19601f820116820180604052508101906110b59190612397565b6001600160a01b0316036110df5760405163bafad72760e01b815260048101829052602401610460565b6003546001600160a01b031660006110f6336113e4565b9050816001600160a01b0316630fa7bbdd6040518163ffffffff1660e01b8152600401602060405180830381865afa158015611136573d6000803e3d6000fd5b505050506040513d601f19601f8201168201806040525081019061115a9190612397565b6001600160a01b03166359b77b1e6040518163ffffffff1660e01b8152600401602060405180830381865afa158015611197573d6000803e3d6000fd5b505050506040513d601f19601f820116820180604052508101906111bb9190612397565b6001600160a01b0316638fb96635836001600160a01b0316639679e742886040518263ffffffff1660e01b81526004016111f791815260200190565b602060405180830381865afa158015611214573d6000803e3d6000fd5b505050506040513d601f19601f820116820180604052508101906112389190612397565b6040516001600160e01b031960e084901b1681526001600160a01b0390911660048201526024810184905260448101879052606401600060405180830381600087803b15801561128757600080fd5b505af115801561129b573d6000803e3d6000fd5b50505050816001600160a01b0316630ed49f4a6040518163ffffffff1660e01b8152600401602060405180830381865afa1580156112dd573d6000803e3d6000fd5b505050506040513d601f19601f820116820180604052508101906113019190612397565b604051636e56fa5160e11b815260048101839052602481018690526001600160a01b03919091169063dcadf4a2906044015b600060405180830381600087803b15801561134d57600080fd5b505af1158015611361573d6000803e3d6000fd5b505050505050505050565b600060028054036113bf5760405162461bcd60e51b815260206004820152601f60248201527f5265656e7472616e637947756172643a207265656e7472616e742063616c6c006044820152606401610460565b600280556113d86113cf336113e4565b84600185611b02565b60016002559392505050565b600080600360009054906101000a90046001600160a01b03166001600160a01b0316630fa7bbdd6040518163ffffffff1660e01b8152600401602060405180830381865afa15801561143a573d6000803e3d6000fd5b505050506040513d601f19601f8201168201806040525081019061145e9190612397565b60405163e2a4128360e01b81526001600160a01b0385811660048301529192509082169063e2a4128390602401602060405180830381865afa1580156114a8573d6000803e3d6000fd5b505050506040513d601f19601f82011682018060405250810190610cbf91906123ca565b600082600881106114f357604051631e77dcef60e01b815260048101829052602401610460565b83915082825b60088110156115535760046000611511836001612412565b8152602001908152602001600020548261152b9190612412565b91504282116115535761153f816001612412565b93508061154b81612425565b9150506114f9565b50505092915050565b60035460408051630fa7bbdd60e01b815290516001600160a01b03909216916000918391630fa7bbdd916004808201926020929091908290030181865afa1580156115ab573d6000803e3d6000fd5b505050506040513d601f19601f820116820180604052508101906115cf9190612397565b6001600160a01b03166359b77b1e6040518163ffffffff1660e01b8152600401602060405180830381865afa15801561160c573d6000803e3d6000fd5b505050506040513d601f19601f820116820180604052508101906116309190612397565b9050806001600160a01b03166322e5064f836001600160a01b03166332479a5e6040518163ffffffff1660e01b8152600401602060405180830381865afa15801561167f573d6000803e3d6000fd5b505050506040513d601f19601f820116820180604052508101906116a39190612397565b6040516001600160e01b031960e084901b1681526001600160a01b0390911660048201526024810187905230604482015260648101869052608401600060405180830381600087803b1580156116f857600080fd5b505af115801561170c573d6000803e3d6000fd5b5050505050505050565b60035460408051630fa7bbdd60e01b815290516001600160a01b03909216916000918391630fa7bbdd916004808201926020929091908290030181865afa158015611765573d6000803e3d6000fd5b505050506040513d601f19601f820116820180604052508101906117899190612397565b6001600160a01b03166359b77b1e6040518163ffffffff1660e01b8152600401602060405180830381865afa1580156117c6573d6000803e3d6000fd5b505050506040513d601f19601f820116820180604052508101906117ea9190612397565b9050806001600160a01b03166322e5064f836001600160a01b0316639679e742876040518263ffffffff1660e01b815260040161182991815260200190565b602060405180830381865afa158015611846573d6000803e3d6000fd5b505050506040513d601f19601f8201168201806040525081019061186a9190612397565b6040516001600160e01b031960e084901b1681526001600160a01b0390911660048201526024810188905230604482015260648101869052608401611333565b60035460408051630fa7bbdd60e01b815290516001600160a01b03909216916000918391630fa7bbdd916004808201926020929091908290030181865afa1580156118f9573d6000803e3d6000fd5b505050506040513d601f19601f8201168201806040525081019061191d9190612397565b6001600160a01b03166359b77b1e6040518163ffffffff1660e01b8152600401602060405180830381865afa15801561195a573d6000803e3d6000fd5b505050506040513d601f19601f8201168201806040525081019061197e9190612397565b9050806001600160a01b031663a41477a1836001600160a01b03166332479a5e6040518163ffffffff1660e01b8152600401602060405180830381865afa1580156119cd573d6000803e3d6000fd5b505050506040513d601f19601f820116820180604052508101906119f19190612397565b30856001600160a01b03166368bbc4896040518163ffffffff1660e01b8152600401602060405180830381865afa158015611a30573d6000803e3d6000fd5b505050506040513d601f19601f82011682018060405250810190611a549190612397565b60405160e085901b6001600160e01b03191681526001600160a01b0393841660048201529183166024830152909116604482015260648101869052608401600060405180830381600087803b158015611aac57600080fd5b505af1158015611ac0573d6000803e3d6000fd5b505050507fe2b3d190cf6538e9b808133f707d546d38c3cde89bfe2ddf53267b359f381a7383604051611af591815260200190565b60405180910390a1505050565b60008360088110611b2957604051631e77dcef60e01b815260048101829052602401610460565b60075460ff16611b4c5760405163d7b6d21360e01b815260040160405180910390fd5b82600003611b705760405163ec3a977b60e01b815260048101839052602401610460565b6003546001600160a01b03166000869003611d2a57806001600160a01b0316630fa7bbdd6040518163ffffffff1660e01b8152600401602060405180830381865afa158015611bc3573d6000803e3d6000fd5b505050506040513d601f19601f82011682018060405250810190611be79190612397565b6001600160a01b03166359b77b1e6040518163ffffffff1660e01b8152600401602060405180830381865afa158015611c24573d6000803e3d6000fd5b505050506040513d601f19601f82011682018060405250810190611c489190612397565b6001600160a01b031663634af77f826001600160a01b03166332479a5e6040518163ffffffff1660e01b8152600401602060405180830381865afa158015611c94573d6000803e3d6000fd5b505050506040513d601f19601f82011682018060405250810190611cb89190612397565b6040516001600160e01b031960e084901b1681526001600160a01b039091166004820152602481018a905230604482015260648101879052608401600060405180830381600087803b158015611d0d57600080fd5b505af1158015611d21573d6000803e3d6000fd5b50505050611ed8565b806001600160a01b0316630fa7bbdd6040518163ffffffff1660e01b8152600401602060405180830381865afa158015611d68573d6000803e3d6000fd5b505050506040513d601f19601f82011682018060405250810190611d8c9190612397565b6001600160a01b03166359b77b1e6040518163ffffffff1660e01b8152600401602060405180830381865afa158015611dc9573d6000803e3d6000fd5b505050506040513d601f19601f82011682018060405250810190611ded9190612397565b6001600160a01b031663634af77f826001600160a01b0316639679e742896040518263ffffffff1660e01b8152600401611e2991815260200190565b602060405180830381865afa158015611e46573d6000803e3d6000fd5b505050506040513d601f19601f82011682018060405250810190611e6a9190612397565b6040516001600160e01b031960e084901b1681526001600160a01b039091166004820152602481018a905230604482015260648101879052608401600060405180830381600087803b158015611ebf57600080fd5b505af1158015611ed3573d6000803e3d6000fd5b505050505b600042905060056040518060a00160405280611ef38b612087565b6001600160d81b031681526020018815158152602001898152602001878152602001611f1e8461210a565b63ffffffff908116909152825460018181018555600094855260209485902084516004909302018054958501511515600160d81b026001600160e01b03199096166001600160d81b039093169290921794909417815560408301518185015560608301516002820155608090920151600390920180549290911663ffffffff19909216919091179055600554611fb491906123f9565b6000898152600660209081526040808320805460018101825590845292829020909201839055815184815290810188905291955085917fa9723d5da68195fdb496586c9f69daf040be5f049ca382ca44cdcd1400459fe3910160405180910390a2505050949350505050565b6000805475ffffffffffffffffffffffffffffffffffffffff00001916620100006001600160a01b0384811682810293909317808555604051939492900416917f564590b81987d147246f63910a8e1ee4eb09c4d64cc75ee975a8ffedfcc2210e9190a350565b60006001600160d81b038211156121065760405162461bcd60e51b815260206004820152602760248201527f53616665436173743a2076616c756520646f65736e27742066697420696e203260448201527f31362062697473000000000000000000000000000000000000000000000000006064820152608401610460565b5090565b600063ffffffff8211156121065760405162461bcd60e51b815260206004820152602660248201527f53616665436173743a2076616c756520646f65736e27742066697420696e203360448201527f32206269747300000000000000000000000000000000000000000000000000006064820152608401610460565b6000806040838503121561219957600080fd5b50508035926020909101359150565b6000602082840312156121ba57600080fd5b5035919050565b803580151581146121d157600080fd5b919050565b6000602082840312156121e857600080fd5b610cbf826121c1565b60008060006060848603121561220657600080fd5b505081359360208301359350604090920135919050565b6001600160a01b038116811461223257600080fd5b50565b6000806040838503121561224857600080fd5b82356122538161221d565b9150612261602084016121c1565b90509250929050565b6020808252825182820181905260009190848201906040850190845b818110156122a257835183529284019291840191600101612286565b50909695505050505050565b634e487b7160e01b600052604160045260246000fd5b600080604083850312156122d757600080fd5b82356122e28161221d565b915060208381013567ffffffffffffffff8082111561230057600080fd5b818601915086601f83011261231457600080fd5b813581811115612326576123266122ae565b8060051b604051601f19603f8301168101818110858211171561234b5761234b6122ae565b60405291825284820192508381018501918983111561236957600080fd5b938501935b828510156123875784358452938501939285019261236e565b8096505050505050509250929050565b6000602082840312156123a957600080fd5b8151610cbf8161221d565b634e487b7160e01b600052603260045260246000fd5b6000602082840312156123dc57600080fd5b5051919050565b634e487b7160e01b600052601160045260246000fd5b8181038181111561240c5761240c6123e3565b92915050565b8082018082111561240c5761240c6123e3565b600060018201612437576124376123e3565b506001019056fea164736f6c6343000811000a",
  "linkReferences": {},
  "deployedLinkReferences": {}
}